{
  "_format": "hh-sol-artifact-1",
  "contractName": "NFTCollection",
  "sourceName": "contracts/NFTCollection.sol",
  "abi": [
    {
      "inputs": [],
      "stateMutability": "nonpayable",
      "type": "constructor"
    },
    {
      "anonymous": false,
      "inputs": [
        {
          "indexed": true,
          "internalType": "address",
          "name": "owner",
          "type": "address"
        },
        {
          "indexed": true,
          "internalType": "address",
          "name": "approved",
          "type": "address"
        },
        {
          "indexed": true,
          "internalType": "uint256",
          "name": "tokenId",
          "type": "uint256"
        }
      ],
      "name": "Approval",
      "type": "event"
    },
    {
      "anonymous": false,
      "inputs": [
        {
          "indexed": true,
          "internalType": "address",
          "name": "owner",
          "type": "address"
        },
        {
          "indexed": true,
          "internalType": "address",
          "name": "operator",
          "type": "address"
        },
        {
          "indexed": false,
          "internalType": "bool",
          "name": "approved",
          "type": "bool"
        }
      ],
      "name": "ApprovalForAll",
      "type": "event"
    },
    {
      "anonymous": false,
      "inputs": [
        {
          "indexed": false,
          "internalType": "address",
          "name": "sender",
          "type": "address"
        },
        {
          "indexed": false,
          "internalType": "uint256",
          "name": "tokenId",
          "type": "uint256"
        },
        {
          "indexed": false,
          "internalType": "string",
          "name": "_svg",
          "type": "string"
        }
      ],
      "name": "NewMint",
      "type": "event"
    },
    {
      "anonymous": false,
      "inputs": [
        {
          "indexed": true,
          "internalType": "address",
          "name": "from",
          "type": "address"
        },
        {
          "indexed": true,
          "internalType": "address",
          "name": "to",
          "type": "address"
        },
        {
          "indexed": true,
          "internalType": "uint256",
          "name": "tokenId",
          "type": "uint256"
        }
      ],
      "name": "Transfer",
      "type": "event"
    },
    {
      "inputs": [
        {
          "internalType": "address",
          "name": "to",
          "type": "address"
        },
        {
          "internalType": "uint256",
          "name": "tokenId",
          "type": "uint256"
        }
      ],
      "name": "approve",
      "outputs": [],
      "stateMutability": "nonpayable",
      "type": "function"
    },
    {
      "inputs": [
        {
          "internalType": "address",
          "name": "owner",
          "type": "address"
        }
      ],
      "name": "balanceOf",
      "outputs": [
        {
          "internalType": "uint256",
          "name": "",
          "type": "uint256"
        }
      ],
      "stateMutability": "view",
      "type": "function"
    },
    {
      "inputs": [],
      "name": "currentMints",
      "outputs": [
        {
          "internalType": "uint256",
          "name": "",
          "type": "uint256"
        }
      ],
      "stateMutability": "view",
      "type": "function"
    },
    {
      "inputs": [
        {
          "internalType": "uint256",
          "name": "tokenId",
          "type": "uint256"
        }
      ],
      "name": "getApproved",
      "outputs": [
        {
          "internalType": "address",
          "name": "",
          "type": "address"
        }
      ],
      "stateMutability": "view",
      "type": "function"
    },
    {
      "inputs": [
        {
          "internalType": "address",
          "name": "owner",
          "type": "address"
        },
        {
          "internalType": "address",
          "name": "operator",
          "type": "address"
        }
      ],
      "name": "isApprovedForAll",
      "outputs": [
        {
          "internalType": "bool",
          "name": "",
          "type": "bool"
        }
      ],
      "stateMutability": "view",
      "type": "function"
    },
    {
      "inputs": [],
      "name": "mintLimit",
      "outputs": [
        {
          "internalType": "uint256",
          "name": "",
          "type": "uint256"
        }
      ],
      "stateMutability": "view",
      "type": "function"
    },
    {
      "inputs": [],
      "name": "mintNFT",
      "outputs": [],
      "stateMutability": "nonpayable",
      "type": "function"
    },
    {
      "inputs": [],
      "name": "name",
      "outputs": [
        {
          "internalType": "string",
          "name": "",
          "type": "string"
        }
      ],
      "stateMutability": "view",
      "type": "function"
    },
    {
      "inputs": [
        {
          "internalType": "uint256",
          "name": "tokenId",
          "type": "uint256"
        }
      ],
      "name": "ownerOf",
      "outputs": [
        {
          "internalType": "address",
          "name": "",
          "type": "address"
        }
      ],
      "stateMutability": "view",
      "type": "function"
    },
    {
      "inputs": [
        {
          "internalType": "uint256",
          "name": "tokenId",
          "type": "uint256"
        }
      ],
      "name": "pickRandomColor",
      "outputs": [
        {
          "internalType": "string",
          "name": "",
          "type": "string"
        }
      ],
      "stateMutability": "view",
      "type": "function"
    },
    {
      "inputs": [
        {
          "internalType": "uint256",
          "name": "tokenId",
          "type": "uint256"
        }
      ],
      "name": "pickRandomFirstWord",
      "outputs": [
        {
          "internalType": "string",
          "name": "",
          "type": "string"
        }
      ],
      "stateMutability": "view",
      "type": "function"
    },
    {
      "inputs": [
        {
          "internalType": "uint256",
          "name": "tokenId",
          "type": "uint256"
        }
      ],
      "name": "pickRandomSecondWord",
      "outputs": [
        {
          "internalType": "string",
          "name": "",
          "type": "string"
        }
      ],
      "stateMutability": "view",
      "type": "function"
    },
    {
      "inputs": [
        {
          "internalType": "uint256",
          "name": "tokenId",
          "type": "uint256"
        }
      ],
      "name": "pickRandomThirdWord",
      "outputs": [
        {
          "internalType": "string",
          "name": "",
          "type": "string"
        }
      ],
      "stateMutability": "view",
      "type": "function"
    },
    {
      "inputs": [
        {
          "internalType": "address",
          "name": "from",
          "type": "address"
        },
        {
          "internalType": "address",
          "name": "to",
          "type": "address"
        },
        {
          "internalType": "uint256",
          "name": "tokenId",
          "type": "uint256"
        }
      ],
      "name": "safeTransferFrom",
      "outputs": [],
      "stateMutability": "nonpayable",
      "type": "function"
    },
    {
      "inputs": [
        {
          "internalType": "address",
          "name": "from",
          "type": "address"
        },
        {
          "internalType": "address",
          "name": "to",
          "type": "address"
        },
        {
          "internalType": "uint256",
          "name": "tokenId",
          "type": "uint256"
        },
        {
          "internalType": "bytes",
          "name": "data",
          "type": "bytes"
        }
      ],
      "name": "safeTransferFrom",
      "outputs": [],
      "stateMutability": "nonpayable",
      "type": "function"
    },
    {
      "inputs": [
        {
          "internalType": "address",
          "name": "operator",
          "type": "address"
        },
        {
          "internalType": "bool",
          "name": "approved",
          "type": "bool"
        }
      ],
      "name": "setApprovalForAll",
      "outputs": [],
      "stateMutability": "nonpayable",
      "type": "function"
    },
    {
      "inputs": [
        {
          "internalType": "bytes4",
          "name": "interfaceId",
          "type": "bytes4"
        }
      ],
      "name": "supportsInterface",
      "outputs": [
        {
          "internalType": "bool",
          "name": "",
          "type": "bool"
        }
      ],
      "stateMutability": "view",
      "type": "function"
    },
    {
      "inputs": [],
      "name": "symbol",
      "outputs": [
        {
          "internalType": "string",
          "name": "",
          "type": "string"
        }
      ],
      "stateMutability": "view",
      "type": "function"
    },
    {
      "inputs": [
        {
          "internalType": "uint256",
          "name": "tokenId",
          "type": "uint256"
        }
      ],
      "name": "tokenURI",
      "outputs": [
        {
          "internalType": "string",
          "name": "",
          "type": "string"
        }
      ],
      "stateMutability": "view",
      "type": "function"
    },
    {
      "inputs": [
        {
          "internalType": "address",
          "name": "from",
          "type": "address"
        },
        {
          "internalType": "address",
          "name": "to",
          "type": "address"
        },
        {
          "internalType": "uint256",
          "name": "tokenId",
          "type": "uint256"
        }
      ],
      "name": "transferFrom",
      "outputs": [],
      "stateMutability": "nonpayable",
      "type": "function"
    }
  ],
  "bytecode": "0x60806040526064600855600060095560405180610120016040528060e881526020016200488360e89139600a90805190602001906200004092919062000afd565b506040518060800160405280605681526020016200496b60569139600b90805190602001906200007292919062000afd565b506040518061016001604052806040518060400160405280600481526020017f4d696e690000000000000000000000000000000000000000000000000000000081525081526020016040518060400160405280600581526020017f4d6963726f00000000000000000000000000000000000000000000000000000081525081526020016040518060400160405280600581526020017f4d6163726f00000000000000000000000000000000000000000000000000000081525081526020016040518060400160405280600581526020017f457874726100000000000000000000000000000000000000000000000000000081525081526020016040518060400160405280600481526020017f4d6f6e6f0000000000000000000000000000000000000000000000000000000081525081526020016040518060400160405280600681526020017f547269706c65000000000000000000000000000000000000000000000000000081525081526020016040518060400160405280600681526020017f446f75626c65000000000000000000000000000000000000000000000000000081525081526020016040518060400160405280600681526020017f53696d706c65000000000000000000000000000000000000000000000000000081525081526020016040518060400160405280600581526020017f4d756c746900000000000000000000000000000000000000000000000000000081525081526020016040518060400160405280600581526020017f537570657200000000000000000000000000000000000000000000000000000081525081526020016040518060400160405280600581526020017f4261736963000000000000000000000000000000000000000000000000000000815250815250600c90600b6200031892919062000b8e565b506040518061014001604052806040518060400160405280600481526020017f49726f6e0000000000000000000000000000000000000000000000000000000081525081526020016040518060400160405280600481526020017f476f6c640000000000000000000000000000000000000000000000000000000081525081526020016040518060400160405280600781526020017f456d6572616c640000000000000000000000000000000000000000000000000081525081526020016040518060400160405280600781526020017f4469616d6f6e640000000000000000000000000000000000000000000000000081525081526020016040518060400160405280600881526020017f43686172636f616c00000000000000000000000000000000000000000000000081525081526020016040518060400160405280600581526020017f53746f6e6500000000000000000000000000000000000000000000000000000081525081526020016040518060400160405280600581526020017f576174657200000000000000000000000000000000000000000000000000000081525081526020016040518060400160405280600481526020017f53616e640000000000000000000000000000000000000000000000000000000081525081526020016040518060400160405280600581526020017f4d61676d6100000000000000000000000000000000000000000000000000000081525081526020016040518060400160405280600481526020017f4669726500000000000000000000000000000000000000000000000000000000815250815250600d90600a6200058392919062000bf5565b506040518061012001604052806040518060400160405280600981526020017f48616d627572676572000000000000000000000000000000000000000000000081525081526020016040518060400160405280600581526020017f506173746100000000000000000000000000000000000000000000000000000081525081526020016040518060400160405280600781526020017f43686f72697a6f0000000000000000000000000000000000000000000000000081525081526020016040518060400160405280600681526020017f42616e616e61000000000000000000000000000000000000000000000000000081525081526020016040518060400160405280600781526020017f436869636b656e0000000000000000000000000000000000000000000000000081525081526020016040518060400160405280600681526020017f506f7461746f000000000000000000000000000000000000000000000000000081525081526020016040518060400160405280600581526020017f53616c616400000000000000000000000000000000000000000000000000000081525081526020016040518060400160405280600581526020017f50697a7a6100000000000000000000000000000000000000000000000000000081525081526020016040518060400160405280600881526020017f496365637265616d000000000000000000000000000000000000000000000000815250815250600e906009620007b392919062000c5c565b506040518060c001604052806040518060400160405280600381526020017f726564000000000000000000000000000000000000000000000000000000000081525081526020016040518060400160405280600781526020017f233038433241380000000000000000000000000000000000000000000000000081525081526020016040518060400160405280600581526020017f626c61636b00000000000000000000000000000000000000000000000000000081525081526020016040518060400160405280600681526020017f79656c6c6f77000000000000000000000000000000000000000000000000000081525081526020016040518060400160405280600481526020017f626c75650000000000000000000000000000000000000000000000000000000081525081526020016040518060400160405280600581526020017f677265656e000000000000000000000000000000000000000000000000000000815250815250600f9060066200093192919062000cc3565b503480156200093f57600080fd5b506040518060400160405280600981526020017f5371756172654e465400000000000000000000000000000000000000000000008152506040518060400160405280600681526020017f53515541524500000000000000000000000000000000000000000000000000008152508160009080519060200190620009c492919062000afd565b508060019080519060200190620009dd92919062000afd565b50505062000a2b6040518060400160405280601e81526020017f54686973206973206d79204e465420636f6e74726163742e20576f616821000081525062000a3160201b620011d61760201c565b62000ee4565b62000ad18160405160240162000a48919062000e5b565b6040516020818303038152906040527f41304fac000000000000000000000000000000000000000000000000000000007bffffffffffffffffffffffffffffffffffffffffffffffffffffffff19166020820180517bffffffffffffffffffffffffffffffffffffffffffffffffffffffff838183161783525050505062000ad460201b60201c565b50565b60008151905060006a636f6e736f6c652e6c6f679050602083016000808483855afa5050505050565b82805462000b0b9062000eae565b90600052602060002090601f01602090048101928262000b2f576000855562000b7b565b82601f1062000b4a57805160ff191683800117855562000b7b565b8280016001018555821562000b7b579182015b8281111562000b7a57825182559160200191906001019062000b5d565b5b50905062000b8a919062000d2a565b5090565b82805482825590600052602060002090810192821562000be2579160200282015b8281111562000be157825182908051906020019062000bd092919062000afd565b509160200191906001019062000baf565b5b50905062000bf1919062000d49565b5090565b82805482825590600052602060002090810192821562000c49579160200282015b8281111562000c4857825182908051906020019062000c3792919062000afd565b509160200191906001019062000c16565b5b50905062000c58919062000d49565b5090565b82805482825590600052602060002090810192821562000cb0579160200282015b8281111562000caf57825182908051906020019062000c9e92919062000afd565b509160200191906001019062000c7d565b5b50905062000cbf919062000d49565b5090565b82805482825590600052602060002090810192821562000d17579160200282015b8281111562000d1657825182908051906020019062000d0592919062000afd565b509160200191906001019062000ce4565b5b50905062000d26919062000d49565b5090565b5b8082111562000d4557600081600090555060010162000d2b565b5090565b5b8082111562000d6d576000818162000d63919062000d71565b5060010162000d4a565b5090565b50805462000d7f9062000eae565b6000825580601f1062000d93575062000db4565b601f01602090049060005260206000209081019062000db3919062000d2a565b5b50565b600081519050919050565b600082825260208201905092915050565b60005b8381101562000df357808201518184015260208101905062000dd6565b8381111562000e03576000848401525b50505050565b6000601f19601f8301169050919050565b600062000e278262000db7565b62000e33818562000dc2565b935062000e4581856020860162000dd3565b62000e508162000e09565b840191505092915050565b6000602082019050818103600083015262000e77818462000e1a565b905092915050565b7f4e487b7100000000000000000000000000000000000000000000000000000000600052602260045260246000fd5b6000600282049050600182168062000ec757607f821691505b6020821081141562000ede5762000edd62000e7f565b5b50919050565b61398f8062000ef46000396000f3fe608060405234801561001057600080fd5b506004361061012c5760003560e01c80636352211e116100ad578063b187301f11610071578063b187301f14610343578063b88d4fde14610373578063c575757a1461038f578063c87b56dd146103bf578063e985e9c5146103ef5761012c565b80636352211e1461028b57806370a08231146102bb57806395d89b41146102eb578063996517cf14610309578063a22cb465146103275761012c565b806314f710fe116100f457806314f710fe146101e957806323b872dd146101f35780632de38d681461020f57806342842e0e1461023f578063514dc8c61461025b5761012c565b806301ffc9a71461013157806306fdde0314610161578063081812fc1461017f578063095ea7b3146101af57806310351938146101cb575b600080fd5b61014b6004803603810190610146919061235d565b61041f565b60405161015891906123a5565b60405180910390f35b610169610501565b6040516101769190612459565b60405180910390f35b610199600480360381019061019491906124b1565b610593565b6040516101a6919061251f565b60405180910390f35b6101c960048036038101906101c49190612566565b6105d9565b005b6101d36106f1565b6040516101e091906125b5565b60405180910390f35b6101f16106f7565b005b61020d600480360381019061020891906125d0565b610955565b005b610229600480360381019061022491906124b1565b6109b5565b6040516102369190612459565b60405180910390f35b610259600480360381019061025491906125d0565b610aad565b005b610275600480360381019061027091906124b1565b610acd565b6040516102829190612459565b60405180910390f35b6102a560048036038101906102a091906124b1565b610bc5565b6040516102b2919061251f565b60405180910390f35b6102d560048036038101906102d09190612623565b610c77565b6040516102e291906125b5565b60405180910390f35b6102f3610d2f565b6040516103009190612459565b60405180910390f35b610311610dc1565b60405161031e91906125b5565b60405180910390f35b610341600480360381019061033c919061267c565b610dc7565b005b61035d600480360381019061035891906124b1565b610ddd565b60405161036a9190612459565b60405180910390f35b61038d600480360381019061038891906127f1565b610ed5565b005b6103a960048036038101906103a491906124b1565b610f37565b6040516103b69190612459565b60405180910390f35b6103d960048036038101906103d491906124b1565b61102f565b6040516103e69190612459565b60405180910390f35b61040960048036038101906104049190612874565b611142565b60405161041691906123a5565b60405180910390f35b60007f80ac58cd000000000000000000000000000000000000000000000000000000007bffffffffffffffffffffffffffffffffffffffffffffffffffffffff1916827bffffffffffffffffffffffffffffffffffffffffffffffffffffffff191614806104ea57507f5b5e139f000000000000000000000000000000000000000000000000000000007bffffffffffffffffffffffffffffffffffffffffffffffffffffffff1916827bffffffffffffffffffffffffffffffffffffffffffffffffffffffff1916145b806104fa57506104f98261126f565b5b9050919050565b606060008054610510906128e3565b80601f016020809104026020016040519081016040528092919081815260200182805461053c906128e3565b80156105895780601f1061055e57610100808354040283529160200191610589565b820191906000526020600020905b81548152906001019060200180831161056c57829003601f168201915b5050505050905090565b600061059e826112d9565b6004600083815260200190815260200160002060009054906101000a900473ffffffffffffffffffffffffffffffffffffffff169050919050565b60006105e482610bc5565b90508073ffffffffffffffffffffffffffffffffffffffff168373ffffffffffffffffffffffffffffffffffffffff161415610655576040517f08c379a000000000000000000000000000000000000000000000000000000000815260040161064c90612987565b60405180910390fd5b8073ffffffffffffffffffffffffffffffffffffffff16610674611324565b73ffffffffffffffffffffffffffffffffffffffff1614806106a357506106a28161069d611324565b611142565b5b6106e2576040517f08c379a00000000000000000000000000000000000000000000000000000000081526004016106d990612a19565b60405180910390fd5b6106ec838361132c565b505050565b60095481565b6008546009541061073d576040517f08c379a000000000000000000000000000000000000000000000000000000000815260040161073490612aab565b60405180910390fd5b600061074960076113e5565b90506000610756826109b5565b9050600061076383610ddd565b9050600061077084610f37565b9050600083838360405160200161078993929190612b07565b604051602081830303815290604052905060006107a586610acd565b90506000600a82600b856040516020016107c29493929190612c18565b60405160208183030381529060405290506000610807846107e2846113f3565b6040516020016107f3929190612db7565b6040516020818303038152906040526113f3565b905060008160405160200161081c9190612e48565b604051602081830303815290604052905061086b6040518060400160405280601581526020017f0a2d2d2d2d2d2d2d2d2d2d2d2d2d2d2d2d2d2d2d2d00000000000000000000008152506111d6565b610874816111d6565b6108b26040518060400160405280601581526020017f2d2d2d2d2d2d2d2d2d2d2d2d2d2d2d2d2d2d2d2d0a00000000000000000000008152506111d6565b6108bc338a61158b565b6108c689826115a9565b6108d0600761161d565b6108f36040518060600160405280602581526020016138f5602591398a33611633565b61090960016009546116d290919063ffffffff16565b6009819055507f3e316b9357d5845154ae758d6a95ac942edaac9a6f0ed10960007b0a3a642630338a8560405161094293929190612e6a565b60405180910390a1505050505050505050565b610966610960611324565b826116e8565b6109a5576040517f08c379a000000000000000000000000000000000000000000000000000000000815260040161099c90612f1a565b60405180910390fd5b6109b083838361177d565b505050565b606060006109e96109c5846119e4565b6040516020016109d59190612f86565b604051602081830303815290604052611b45565b9050600c80549050816109fc9190612fd7565b9050600c8181548110610a1257610a11613008565b5b906000526020600020018054610a27906128e3565b80601f0160208091040260200160405190810160405280929190818152602001828054610a53906128e3565b8015610aa05780601f10610a7557610100808354040283529160200191610aa0565b820191906000526020600020905b815481529060010190602001808311610a8357829003601f168201915b5050505050915050919050565b610ac883838360405180602001604052806000815250610ed5565b505050565b60606000610b01610add846119e4565b604051602001610aed9190613083565b604051602081830303815290604052611b45565b9050600f8054905081610b149190612fd7565b9050600f8181548110610b2a57610b29613008565b5b906000526020600020018054610b3f906128e3565b80601f0160208091040260200160405190810160405280929190818152602001828054610b6b906128e3565b8015610bb85780601f10610b8d57610100808354040283529160200191610bb8565b820191906000526020600020905b815481529060010190602001808311610b9b57829003601f168201915b5050505050915050919050565b6000806002600084815260200190815260200160002060009054906101000a900473ffffffffffffffffffffffffffffffffffffffff169050600073ffffffffffffffffffffffffffffffffffffffff168173ffffffffffffffffffffffffffffffffffffffff161415610c6e576040517f08c379a0000000000000000000000000000000000000000000000000000000008152600401610c65906130f1565b60405180910390fd5b80915050919050565b60008073ffffffffffffffffffffffffffffffffffffffff168273ffffffffffffffffffffffffffffffffffffffff161415610ce8576040517f08c379a0000000000000000000000000000000000000000000000000000000008152600401610cdf90613183565b60405180910390fd5b600360008373ffffffffffffffffffffffffffffffffffffffff1673ffffffffffffffffffffffffffffffffffffffff168152602001908152602001600020549050919050565b606060018054610d3e906128e3565b80601f0160208091040260200160405190810160405280929190818152602001828054610d6a906128e3565b8015610db75780601f10610d8c57610100808354040283529160200191610db7565b820191906000526020600020905b815481529060010190602001808311610d9a57829003601f168201915b5050505050905090565b60085481565b610dd9610dd2611324565b8383611b78565b5050565b60606000610e11610ded846119e4565b604051602001610dfd91906131ef565b604051602081830303815290604052611b45565b9050600d8054905081610e249190612fd7565b9050600d8181548110610e3a57610e39613008565b5b906000526020600020018054610e4f906128e3565b80601f0160208091040260200160405190810160405280929190818152602001828054610e7b906128e3565b8015610ec85780601f10610e9d57610100808354040283529160200191610ec8565b820191906000526020600020905b815481529060010190602001808311610eab57829003601f168201915b5050505050915050919050565b610ee6610ee0611324565b836116e8565b610f25576040517f08c379a0000000000000000000000000000000000000000000000000000000008152600401610f1c90612f1a565b60405180910390fd5b610f3184848484611ce5565b50505050565b60606000610f6b610f47846119e4565b604051602001610f57919061325d565b604051602081830303815290604052611b45565b9050600e8054905081610f7e9190612fd7565b9050600e8181548110610f9457610f93613008565b5b906000526020600020018054610fa9906128e3565b80601f0160208091040260200160405190810160405280929190818152602001828054610fd5906128e3565b80156110225780601f10610ff757610100808354040283529160200191611022565b820191906000526020600020905b81548152906001019060200180831161100557829003601f168201915b5050505050915050919050565b606061103a826112d9565b600060066000848152602001908152602001600020805461105a906128e3565b80601f0160208091040260200160405190810160405280929190818152602001828054611086906128e3565b80156110d35780601f106110a8576101008083540402835291602001916110d3565b820191906000526020600020905b8154815290600101906020018083116110b657829003601f168201915b5050505050905060006110e4611d41565b90506000815114156110fa57819250505061113d565b60008251111561112f57808260405160200161111792919061327f565b6040516020818303038152906040529250505061113d565b61113884611d58565b925050505b919050565b6000600560008473ffffffffffffffffffffffffffffffffffffffff1673ffffffffffffffffffffffffffffffffffffffff16815260200190815260200160002060008373ffffffffffffffffffffffffffffffffffffffff1673ffffffffffffffffffffffffffffffffffffffff16815260200190815260200160002060009054906101000a900460ff16905092915050565b61126c816040516024016111ea9190612459565b6040516020818303038152906040527f41304fac000000000000000000000000000000000000000000000000000000007bffffffffffffffffffffffffffffffffffffffffffffffffffffffff19166020820180517bffffffffffffffffffffffffffffffffffffffffffffffffffffffff8381831617835250505050611dc0565b50565b60007f01ffc9a7000000000000000000000000000000000000000000000000000000007bffffffffffffffffffffffffffffffffffffffffffffffffffffffff1916827bffffffffffffffffffffffffffffffffffffffffffffffffffffffff1916149050919050565b6112e281611de9565b611321576040517f08c379a0000000000000000000000000000000000000000000000000000000008152600401611318906130f1565b60405180910390fd5b50565b600033905090565b816004600083815260200190815260200160002060006101000a81548173ffffffffffffffffffffffffffffffffffffffff021916908373ffffffffffffffffffffffffffffffffffffffff160217905550808273ffffffffffffffffffffffffffffffffffffffff1661139f83610bc5565b73ffffffffffffffffffffffffffffffffffffffff167f8c5be1e5ebec7d5bd14f71427d1e84f3dd0314c0f7b2291e5b200ac8c7c3b92560405160405180910390a45050565b600081600001549050919050565b6060600082519050600081141561141c5760405180602001604052806000815250915050611586565b6000600360028361142d91906132d2565b6114379190613328565b60046114439190613359565b9050600060208261145491906132d2565b67ffffffffffffffff81111561146d5761146c6126c6565b5b6040519080825280601f01601f19166020018201604052801561149f5781602001600182028036833780820191505090505b509050600060405180606001604052806040815260200161391a604091399050600181016020830160005b868110156115435760038101905062ffffff818a015116603f8160121c168401518060081b905060ff603f83600c1c1686015116810190508060081b905060ff603f8360061c1686015116810190508060081b905060ff603f831686015116810190508060e01b905080845260048401935050506114ca565b50600386066001811461155d576002811461156d57611578565b613d3d60f01b6002830352611578565b603d60f81b60018303525b508484525050819450505050505b919050565b6115a5828260405180602001604052806000815250611e55565b5050565b6115b282611de9565b6115f1576040517f08c379a00000000000000000000000000000000000000000000000000000000081526004016115e890613425565b60405180910390fd5b8060066000848152602001908152602001600020908051906020019061161892919061224e565b505050565b6001816000016000828254019250508190555050565b6116cd83838360405160240161164b93929190613445565b6040516020818303038152906040527fe3849f79000000000000000000000000000000000000000000000000000000007bffffffffffffffffffffffffffffffffffffffffffffffffffffffff19166020820180517bffffffffffffffffffffffffffffffffffffffffffffffffffffffff8381831617835250505050611dc0565b505050565b600081836116e091906132d2565b905092915050565b6000806116f483610bc5565b90508073ffffffffffffffffffffffffffffffffffffffff168473ffffffffffffffffffffffffffffffffffffffff16148061173657506117358185611142565b5b8061177457508373ffffffffffffffffffffffffffffffffffffffff1661175c84610593565b73ffffffffffffffffffffffffffffffffffffffff16145b91505092915050565b8273ffffffffffffffffffffffffffffffffffffffff1661179d82610bc5565b73ffffffffffffffffffffffffffffffffffffffff16146117f3576040517f08c379a00000000000000000000000000000000000000000000000000000000081526004016117ea906134f5565b60405180910390fd5b600073ffffffffffffffffffffffffffffffffffffffff168273ffffffffffffffffffffffffffffffffffffffff161415611863576040517f08c379a000000000000000000000000000000000000000000000000000000000815260040161185a90613587565b60405180910390fd5b61186e838383611eb0565b61187960008261132c565b6001600360008573ffffffffffffffffffffffffffffffffffffffff1673ffffffffffffffffffffffffffffffffffffffff16815260200190815260200160002060008282546118c991906135a7565b925050819055506001600360008473ffffffffffffffffffffffffffffffffffffffff1673ffffffffffffffffffffffffffffffffffffffff168152602001908152602001600020600082825461192091906132d2565b92505081905550816002600083815260200190815260200160002060006101000a81548173ffffffffffffffffffffffffffffffffffffffff021916908373ffffffffffffffffffffffffffffffffffffffff160217905550808273ffffffffffffffffffffffffffffffffffffffff168473ffffffffffffffffffffffffffffffffffffffff167fddf252ad1be2c89b69c2b068fc378daa952ba7f163c4a11628f55a4df523b3ef60405160405180910390a46119df838383611eb5565b505050565b60606000821415611a2c576040518060400160405280600181526020017f30000000000000000000000000000000000000000000000000000000000000008152509050611b40565b600082905060005b60008214611a5e578080611a47906135db565b915050600a82611a579190613328565b9150611a34565b60008167ffffffffffffffff811115611a7a57611a796126c6565b5b6040519080825280601f01601f191660200182016040528015611aac5781602001600182028036833780820191505090505b5090505b60008514611b3957600182611ac591906135a7565b9150600a85611ad49190612fd7565b6030611ae091906132d2565b60f81b818381518110611af657611af5613008565b5b60200101907effffffffffffffffffffffffffffffffffffffffffffffffffffffffffffff1916908160001a905350600a85611b329190613328565b9450611ab0565b8093505050505b919050565b600081604051602001611b589190613624565b6040516020818303038152906040528051906020012060001c9050919050565b8173ffffffffffffffffffffffffffffffffffffffff168373ffffffffffffffffffffffffffffffffffffffff161415611be7576040517f08c379a0000000000000000000000000000000000000000000000000000000008152600401611bde90613687565b60405180910390fd5b80600560008573ffffffffffffffffffffffffffffffffffffffff1673ffffffffffffffffffffffffffffffffffffffff16815260200190815260200160002060008473ffffffffffffffffffffffffffffffffffffffff1673ffffffffffffffffffffffffffffffffffffffff16815260200190815260200160002060006101000a81548160ff0219169083151502179055508173ffffffffffffffffffffffffffffffffffffffff168373ffffffffffffffffffffffffffffffffffffffff167f17307eab39ab6107e8899845ad3d59bd9653f200f220920489ca2b5937696c3183604051611cd891906123a5565b60405180910390a3505050565b611cf084848461177d565b611cfc84848484611eba565b611d3b576040517f08c379a0000000000000000000000000000000000000000000000000000000008152600401611d3290613719565b60405180910390fd5b50505050565b606060405180602001604052806000815250905090565b6060611d63826112d9565b6000611d6d611d41565b90506000815111611d8d5760405180602001604052806000815250611db8565b80611d97846119e4565b604051602001611da892919061327f565b6040516020818303038152906040525b915050919050565b60008151905060006a636f6e736f6c652e6c6f679050602083016000808483855afa5050505050565b60008073ffffffffffffffffffffffffffffffffffffffff166002600084815260200190815260200160002060009054906101000a900473ffffffffffffffffffffffffffffffffffffffff1673ffffffffffffffffffffffffffffffffffffffff1614159050919050565b611e5f8383612051565b611e6c6000848484611eba565b611eab576040517f08c379a0000000000000000000000000000000000000000000000000000000008152600401611ea290613719565b60405180910390fd5b505050565b505050565b505050565b6000611edb8473ffffffffffffffffffffffffffffffffffffffff1661222b565b15612044578373ffffffffffffffffffffffffffffffffffffffff1663150b7a02611f04611324565b8786866040518563ffffffff1660e01b8152600401611f26949392919061378e565b602060405180830381600087803b158015611f4057600080fd5b505af1925050508015611f7157506040513d601f19601f82011682018060405250810190611f6e91906137ef565b60015b611ff4573d8060008114611fa1576040519150601f19603f3d011682016040523d82523d6000602084013e611fa6565b606091505b50600081511415611fec576040517f08c379a0000000000000000000000000000000000000000000000000000000008152600401611fe390613719565b60405180910390fd5b805181602001fd5b63150b7a0260e01b7bffffffffffffffffffffffffffffffffffffffffffffffffffffffff1916817bffffffffffffffffffffffffffffffffffffffffffffffffffffffff191614915050612049565b600190505b949350505050565b600073ffffffffffffffffffffffffffffffffffffffff168273ffffffffffffffffffffffffffffffffffffffff1614156120c1576040517f08c379a00000000000000000000000000000000000000000000000000000000081526004016120b890613868565b60405180910390fd5b6120ca81611de9565b1561210a576040517f08c379a0000000000000000000000000000000000000000000000000000000008152600401612101906138d4565b60405180910390fd5b61211660008383611eb0565b6001600360008473ffffffffffffffffffffffffffffffffffffffff1673ffffffffffffffffffffffffffffffffffffffff168152602001908152602001600020600082825461216691906132d2565b92505081905550816002600083815260200190815260200160002060006101000a81548173ffffffffffffffffffffffffffffffffffffffff021916908373ffffffffffffffffffffffffffffffffffffffff160217905550808273ffffffffffffffffffffffffffffffffffffffff16600073ffffffffffffffffffffffffffffffffffffffff167fddf252ad1be2c89b69c2b068fc378daa952ba7f163c4a11628f55a4df523b3ef60405160405180910390a461222760008383611eb5565b5050565b6000808273ffffffffffffffffffffffffffffffffffffffff163b119050919050565b82805461225a906128e3565b90600052602060002090601f01602090048101928261227c57600085556122c3565b82601f1061229557805160ff19168380011785556122c3565b828001600101855582156122c3579182015b828111156122c25782518255916020019190600101906122a7565b5b5090506122d091906122d4565b5090565b5b808211156122ed5760008160009055506001016122d5565b5090565b6000604051905090565b600080fd5b600080fd5b60007fffffffff0000000000000000000000000000000000000000000000000000000082169050919050565b61233a81612305565b811461234557600080fd5b50565b60008135905061235781612331565b92915050565b600060208284031215612373576123726122fb565b5b600061238184828501612348565b91505092915050565b60008115159050919050565b61239f8161238a565b82525050565b60006020820190506123ba6000830184612396565b92915050565b600081519050919050565b600082825260208201905092915050565b60005b838110156123fa5780820151818401526020810190506123df565b83811115612409576000848401525b50505050565b6000601f19601f8301169050919050565b600061242b826123c0565b61243581856123cb565b93506124458185602086016123dc565b61244e8161240f565b840191505092915050565b600060208201905081810360008301526124738184612420565b905092915050565b6000819050919050565b61248e8161247b565b811461249957600080fd5b50565b6000813590506124ab81612485565b92915050565b6000602082840312156124c7576124c66122fb565b5b60006124d58482850161249c565b91505092915050565b600073ffffffffffffffffffffffffffffffffffffffff82169050919050565b6000612509826124de565b9050919050565b612519816124fe565b82525050565b60006020820190506125346000830184612510565b92915050565b612543816124fe565b811461254e57600080fd5b50565b6000813590506125608161253a565b92915050565b6000806040838503121561257d5761257c6122fb565b5b600061258b85828601612551565b925050602061259c8582860161249c565b9150509250929050565b6125af8161247b565b82525050565b60006020820190506125ca60008301846125a6565b92915050565b6000806000606084860312156125e9576125e86122fb565b5b60006125f786828701612551565b935050602061260886828701612551565b92505060406126198682870161249c565b9150509250925092565b600060208284031215612639576126386122fb565b5b600061264784828501612551565b91505092915050565b6126598161238a565b811461266457600080fd5b50565b60008135905061267681612650565b92915050565b60008060408385031215612693576126926122fb565b5b60006126a185828601612551565b92505060206126b285828601612667565b9150509250929050565b600080fd5b600080fd5b7f4e487b7100000000000000000000000000000000000000000000000000000000600052604160045260246000fd5b6126fe8261240f565b810181811067ffffffffffffffff8211171561271d5761271c6126c6565b5b80604052505050565b60006127306122f1565b905061273c82826126f5565b919050565b600067ffffffffffffffff82111561275c5761275b6126c6565b5b6127658261240f565b9050602081019050919050565b82818337600083830152505050565b600061279461278f84612741565b612726565b9050828152602081018484840111156127b0576127af6126c1565b5b6127bb848285612772565b509392505050565b600082601f8301126127d8576127d76126bc565b5b81356127e8848260208601612781565b91505092915050565b6000806000806080858703121561280b5761280a6122fb565b5b600061281987828801612551565b945050602061282a87828801612551565b935050604061283b8782880161249c565b925050606085013567ffffffffffffffff81111561285c5761285b612300565b5b612868878288016127c3565b91505092959194509250565b6000806040838503121561288b5761288a6122fb565b5b600061289985828601612551565b92505060206128aa85828601612551565b9150509250929050565b7f4e487b7100000000000000000000000000000000000000000000000000000000600052602260045260246000fd5b600060028204905060018216806128fb57607f821691505b6020821081141561290f5761290e6128b4565b5b50919050565b7f4552433732313a20617070726f76616c20746f2063757272656e74206f776e6560008201527f7200000000000000000000000000000000000000000000000000000000000000602082015250565b60006129716021836123cb565b915061297c82612915565b604082019050919050565b600060208201905081810360008301526129a081612964565b9050919050565b7f4552433732313a20617070726f76652063616c6c6572206973206e6f7420746f60008201527f6b656e206f776e6572206e6f7220617070726f76656420666f7220616c6c0000602082015250565b6000612a03603e836123cb565b9150612a0e826129a7565b604082019050919050565b60006020820190508181036000830152612a32816129f6565b9050919050565b7f4e6f206d6f7265204e46547320617661696c61626c6520746f206d696e74203a60008201527f2800000000000000000000000000000000000000000000000000000000000000602082015250565b6000612a956021836123cb565b9150612aa082612a39565b604082019050919050565b60006020820190508181036000830152612ac481612a88565b9050919050565b600081905092915050565b6000612ae1826123c0565b612aeb8185612acb565b9350612afb8185602086016123dc565b80840191505092915050565b6000612b138286612ad6565b9150612b1f8285612ad6565b9150612b2b8284612ad6565b9150819050949350505050565b60008190508160005260206000209050919050565b60008154612b5a816128e3565b612b648186612acb565b94506001821660008114612b7f5760018114612b9057612bc3565b60ff19831686528186019350612bc3565b612b9985612b38565b60005b83811015612bbb57815481890152600182019150602081019050612b9c565b838801955050505b50505092915050565b7f3c2f746578743e3c2f7376673e00000000000000000000000000000000000000600082015250565b6000612c02600d83612acb565b9150612c0d82612bcc565b600d82019050919050565b6000612c248287612b4d565b9150612c308286612ad6565b9150612c3c8285612b4d565b9150612c488284612ad6565b9150612c5382612bf5565b915081905095945050505050565b7f7b226e616d65223a202200000000000000000000000000000000000000000000600082015250565b6000612c97600a83612acb565b9150612ca282612c61565b600a82019050919050565b7f222c20226465736372697074696f6e223a20224120686967686c79206163636c60008201527f61696d656420636f6c6c656374696f6e206f6620737175617265732e222c202260208201527f696d616765223a2022646174613a696d6167652f7376672b786d6c3b6261736560408201527f36342c0000000000000000000000000000000000000000000000000000000000606082015250565b6000612d55606383612acb565b9150612d6082612cad565b606382019050919050565b7f227d000000000000000000000000000000000000000000000000000000000000600082015250565b6000612da1600283612acb565b9150612dac82612d6b565b600282019050919050565b6000612dc282612c8a565b9150612dce8285612ad6565b9150612dd982612d48565b9150612de58284612ad6565b9150612df082612d94565b91508190509392505050565b7f646174613a6170706c69636174696f6e2f6a736f6e3b6261736536342c000000600082015250565b6000612e32601d83612acb565b9150612e3d82612dfc565b601d82019050919050565b6000612e5382612e25565b9150612e5f8284612ad6565b915081905092915050565b6000606082019050612e7f6000830186612510565b612e8c60208301856125a6565b8181036040830152612e9e8184612420565b9050949350505050565b7f4552433732313a2063616c6c6572206973206e6f7420746f6b656e206f776e6560008201527f72206e6f7220617070726f766564000000000000000000000000000000000000602082015250565b6000612f04602e836123cb565b9150612f0f82612ea8565b604082019050919050565b60006020820190508181036000830152612f3381612ef7565b9050919050565b7f46495253545f574f524400000000000000000000000000000000000000000000600082015250565b6000612f70600a83612acb565b9150612f7b82612f3a565b600a82019050919050565b6000612f9182612f63565b9150612f9d8284612ad6565b915081905092915050565b7f4e487b7100000000000000000000000000000000000000000000000000000000600052601260045260246000fd5b6000612fe28261247b565b9150612fed8361247b565b925082612ffd57612ffc612fa8565b5b828206905092915050565b7f4e487b7100000000000000000000000000000000000000000000000000000000600052603260045260246000fd5b7f434f4c4f52000000000000000000000000000000000000000000000000000000600082015250565b600061306d600583612acb565b915061307882613037565b600582019050919050565b600061308e82613060565b915061309a8284612ad6565b915081905092915050565b7f4552433732313a20696e76616c696420746f6b656e2049440000000000000000600082015250565b60006130db6018836123cb565b91506130e6826130a5565b602082019050919050565b6000602082019050818103600083015261310a816130ce565b9050919050565b7f4552433732313a2061646472657373207a65726f206973206e6f74206120766160008201527f6c6964206f776e65720000000000000000000000000000000000000000000000602082015250565b600061316d6029836123cb565b915061317882613111565b604082019050919050565b6000602082019050818103600083015261319c81613160565b9050919050565b7f5345434f4e445f574f5244000000000000000000000000000000000000000000600082015250565b60006131d9600b83612acb565b91506131e4826131a3565b600b82019050919050565b60006131fa826131cc565b91506132068284612ad6565b915081905092915050565b7f54484952445f574f524400000000000000000000000000000000000000000000600082015250565b6000613247600a83612acb565b915061325282613211565b600a82019050919050565b60006132688261323a565b91506132748284612ad6565b915081905092915050565b600061328b8285612ad6565b91506132978284612ad6565b91508190509392505050565b7f4e487b7100000000000000000000000000000000000000000000000000000000600052601160045260246000fd5b60006132dd8261247b565b91506132e88361247b565b9250827fffffffffffffffffffffffffffffffffffffffffffffffffffffffffffffffff0382111561331d5761331c6132a3565b5b828201905092915050565b60006133338261247b565b915061333e8361247b565b92508261334e5761334d612fa8565b5b828204905092915050565b60006133648261247b565b915061336f8361247b565b9250817fffffffffffffffffffffffffffffffffffffffffffffffffffffffffffffffff04831182151516156133a8576133a76132a3565b5b828202905092915050565b7f45524337323155524953746f726167653a2055524920736574206f66206e6f6e60008201527f6578697374656e7420746f6b656e000000000000000000000000000000000000602082015250565b600061340f602e836123cb565b915061341a826133b3565b604082019050919050565b6000602082019050818103600083015261343e81613402565b9050919050565b6000606082019050818103600083015261345f8186612420565b905061346e60208301856125a6565b61347b6040830184612510565b949350505050565b7f4552433732313a207472616e736665722066726f6d20696e636f72726563742060008201527f6f776e6572000000000000000000000000000000000000000000000000000000602082015250565b60006134df6025836123cb565b91506134ea82613483565b604082019050919050565b6000602082019050818103600083015261350e816134d2565b9050919050565b7f4552433732313a207472616e7366657220746f20746865207a65726f2061646460008201527f7265737300000000000000000000000000000000000000000000000000000000602082015250565b60006135716024836123cb565b915061357c82613515565b604082019050919050565b600060208201905081810360008301526135a081613564565b9050919050565b60006135b28261247b565b91506135bd8361247b565b9250828210156135d0576135cf6132a3565b5b828203905092915050565b60006135e68261247b565b91507fffffffffffffffffffffffffffffffffffffffffffffffffffffffffffffffff821415613619576136186132a3565b5b600182019050919050565b60006136308284612ad6565b915081905092915050565b7f4552433732313a20617070726f766520746f2063616c6c657200000000000000600082015250565b60006136716019836123cb565b915061367c8261363b565b602082019050919050565b600060208201905081810360008301526136a081613664565b9050919050565b7f4552433732313a207472616e7366657220746f206e6f6e20455243373231526560008201527f63656976657220696d706c656d656e7465720000000000000000000000000000602082015250565b60006137036032836123cb565b915061370e826136a7565b604082019050919050565b60006020820190508181036000830152613732816136f6565b9050919050565b600081519050919050565b600082825260208201905092915050565b600061376082613739565b61376a8185613744565b935061377a8185602086016123dc565b6137838161240f565b840191505092915050565b60006080820190506137a36000830187612510565b6137b06020830186612510565b6137bd60408301856125a6565b81810360608301526137cf8184613755565b905095945050505050565b6000815190506137e981612331565b92915050565b600060208284031215613805576138046122fb565b5b6000613813848285016137da565b91505092915050565b7f4552433732313a206d696e7420746f20746865207a65726f2061646472657373600082015250565b60006138526020836123cb565b915061385d8261381c565b602082019050919050565b6000602082019050818103600083015261388181613845565b9050919050565b7f4552433732313a20746f6b656e20616c7265616479206d696e74656400000000600082015250565b60006138be601c836123cb565b91506138c982613888565b602082019050919050565b600060208201905081810360008301526138ed816138b1565b905091905056fe416e204e465420772f20494420257320686173206265656e206d696e74656420746f2025734142434445464748494a4b4c4d4e4f505152535455565758595a6162636465666768696a6b6c6d6e6f707172737475767778797a303132333435363738392b2fa26469706673582212202dd91937deb538a9e4e2a9bf0c185e4c5eefafeb099fc92927d72b8dca09c4b564736f6c634300080900333c73766720636c6173733d27726f756e64656420772d35302720786d6c6e733d27687474703a2f2f7777772e77332e6f72672f323030302f73766727207072657365727665417370656374526174696f3d27784d696e594d696e206d656574272076696577426f783d273020302033353020333530273e3c7374796c653e2e62617365207b2066696c6c3a2077686974653b20666f6e742d66616d696c793a2073657269663b20666f6e742d73697a653a20323470783b207d3c2f7374796c653e3c726563742077696474683d273130302527206865696768743d2731303025272066696c6c3d27272f3e3c7465787420783d273530252720793d273530252720636c6173733d27626173652720646f6d696e616e742d626173656c696e653d276d6964646c652720746578742d616e63686f723d276d6964646c65273e",
  "linkReferences": {},
  "deployedLinkReferences": {}
}