{
  "_format": "hh-sol-artifact-1",
  "contractName": "NFTCollection",
  "sourceName": "contracts/NFTCollection.sol",
  "abi": [
    {
      "inputs": [],
      "stateMutability": "nonpayable",
      "type": "constructor"
    },
    {
      "anonymous": false,
      "inputs": [
        {
          "indexed": true,
          "internalType": "address",
          "name": "owner",
          "type": "address"
        },
        {
          "indexed": true,
          "internalType": "address",
          "name": "approved",
          "type": "address"
        },
        {
          "indexed": true,
          "internalType": "uint256",
          "name": "tokenId",
          "type": "uint256"
        }
      ],
      "name": "Approval",
      "type": "event"
    },
    {
      "anonymous": false,
      "inputs": [
        {
          "indexed": true,
          "internalType": "address",
          "name": "owner",
          "type": "address"
        },
        {
          "indexed": true,
          "internalType": "address",
          "name": "operator",
          "type": "address"
        },
        {
          "indexed": false,
          "internalType": "bool",
          "name": "approved",
          "type": "bool"
        }
      ],
      "name": "ApprovalForAll",
      "type": "event"
    },
    {
      "anonymous": false,
      "inputs": [
        {
          "indexed": false,
          "internalType": "address",
          "name": "sender",
          "type": "address"
        },
        {
          "indexed": false,
          "internalType": "uint256",
          "name": "tokenId",
          "type": "uint256"
        },
        {
          "indexed": false,
          "internalType": "string",
          "name": "_svg",
          "type": "string"
        }
      ],
      "name": "NewMint",
      "type": "event"
    },
    {
      "anonymous": false,
      "inputs": [
        {
          "indexed": true,
          "internalType": "address",
          "name": "from",
          "type": "address"
        },
        {
          "indexed": true,
          "internalType": "address",
          "name": "to",
          "type": "address"
        },
        {
          "indexed": true,
          "internalType": "uint256",
          "name": "tokenId",
          "type": "uint256"
        }
      ],
      "name": "Transfer",
      "type": "event"
    },
    {
      "inputs": [
        {
          "internalType": "address",
          "name": "to",
          "type": "address"
        },
        {
          "internalType": "uint256",
          "name": "tokenId",
          "type": "uint256"
        }
      ],
      "name": "approve",
      "outputs": [],
      "stateMutability": "nonpayable",
      "type": "function"
    },
    {
      "inputs": [
        {
          "internalType": "address",
          "name": "owner",
          "type": "address"
        }
      ],
      "name": "balanceOf",
      "outputs": [
        {
          "internalType": "uint256",
          "name": "",
          "type": "uint256"
        }
      ],
      "stateMutability": "view",
      "type": "function"
    },
    {
      "inputs": [],
      "name": "currentMints",
      "outputs": [
        {
          "internalType": "uint256",
          "name": "",
          "type": "uint256"
        }
      ],
      "stateMutability": "view",
      "type": "function"
    },
    {
      "inputs": [
        {
          "internalType": "uint256",
          "name": "tokenId",
          "type": "uint256"
        }
      ],
      "name": "getApproved",
      "outputs": [
        {
          "internalType": "address",
          "name": "",
          "type": "address"
        }
      ],
      "stateMutability": "view",
      "type": "function"
    },
    {
      "inputs": [
        {
          "internalType": "address",
          "name": "owner",
          "type": "address"
        },
        {
          "internalType": "address",
          "name": "operator",
          "type": "address"
        }
      ],
      "name": "isApprovedForAll",
      "outputs": [
        {
          "internalType": "bool",
          "name": "",
          "type": "bool"
        }
      ],
      "stateMutability": "view",
      "type": "function"
    },
    {
      "inputs": [],
      "name": "mintLimit",
      "outputs": [
        {
          "internalType": "uint256",
          "name": "",
          "type": "uint256"
        }
      ],
      "stateMutability": "view",
      "type": "function"
    },
    {
      "inputs": [],
      "name": "mintNFT",
      "outputs": [],
      "stateMutability": "nonpayable",
      "type": "function"
    },
    {
      "inputs": [],
      "name": "name",
      "outputs": [
        {
          "internalType": "string",
          "name": "",
          "type": "string"
        }
      ],
      "stateMutability": "view",
      "type": "function"
    },
    {
      "inputs": [
        {
          "internalType": "uint256",
          "name": "tokenId",
          "type": "uint256"
        }
      ],
      "name": "ownerOf",
      "outputs": [
        {
          "internalType": "address",
          "name": "",
          "type": "address"
        }
      ],
      "stateMutability": "view",
      "type": "function"
    },
    {
      "inputs": [
        {
          "internalType": "uint256",
          "name": "tokenId",
          "type": "uint256"
        }
      ],
      "name": "pickRandomColor",
      "outputs": [
        {
          "internalType": "string",
          "name": "",
          "type": "string"
        }
      ],
      "stateMutability": "view",
      "type": "function"
    },
    {
      "inputs": [
        {
          "internalType": "uint256",
          "name": "tokenId",
          "type": "uint256"
        }
      ],
      "name": "pickRandomFirstWord",
      "outputs": [
        {
          "internalType": "string",
          "name": "",
          "type": "string"
        }
      ],
      "stateMutability": "view",
      "type": "function"
    },
    {
      "inputs": [
        {
          "internalType": "uint256",
          "name": "tokenId",
          "type": "uint256"
        }
      ],
      "name": "pickRandomSecondWord",
      "outputs": [
        {
          "internalType": "string",
          "name": "",
          "type": "string"
        }
      ],
      "stateMutability": "view",
      "type": "function"
    },
    {
      "inputs": [
        {
          "internalType": "uint256",
          "name": "tokenId",
          "type": "uint256"
        }
      ],
      "name": "pickRandomThirdWord",
      "outputs": [
        {
          "internalType": "string",
          "name": "",
          "type": "string"
        }
      ],
      "stateMutability": "view",
      "type": "function"
    },
    {
      "inputs": [
        {
          "internalType": "address",
          "name": "from",
          "type": "address"
        },
        {
          "internalType": "address",
          "name": "to",
          "type": "address"
        },
        {
          "internalType": "uint256",
          "name": "tokenId",
          "type": "uint256"
        }
      ],
      "name": "safeTransferFrom",
      "outputs": [],
      "stateMutability": "nonpayable",
      "type": "function"
    },
    {
      "inputs": [
        {
          "internalType": "address",
          "name": "from",
          "type": "address"
        },
        {
          "internalType": "address",
          "name": "to",
          "type": "address"
        },
        {
          "internalType": "uint256",
          "name": "tokenId",
          "type": "uint256"
        },
        {
          "internalType": "bytes",
          "name": "data",
          "type": "bytes"
        }
      ],
      "name": "safeTransferFrom",
      "outputs": [],
      "stateMutability": "nonpayable",
      "type": "function"
    },
    {
      "inputs": [
        {
          "internalType": "address",
          "name": "operator",
          "type": "address"
        },
        {
          "internalType": "bool",
          "name": "approved",
          "type": "bool"
        }
      ],
      "name": "setApprovalForAll",
      "outputs": [],
      "stateMutability": "nonpayable",
      "type": "function"
    },
    {
      "inputs": [
        {
          "internalType": "bytes4",
          "name": "interfaceId",
          "type": "bytes4"
        }
      ],
      "name": "supportsInterface",
      "outputs": [
        {
          "internalType": "bool",
          "name": "",
          "type": "bool"
        }
      ],
      "stateMutability": "view",
      "type": "function"
    },
    {
      "inputs": [],
      "name": "symbol",
      "outputs": [
        {
          "internalType": "string",
          "name": "",
          "type": "string"
        }
      ],
      "stateMutability": "view",
      "type": "function"
    },
    {
      "inputs": [
        {
          "internalType": "uint256",
          "name": "tokenId",
          "type": "uint256"
        }
      ],
      "name": "tokenURI",
      "outputs": [
        {
          "internalType": "string",
          "name": "",
          "type": "string"
        }
      ],
      "stateMutability": "view",
      "type": "function"
    },
    {
      "inputs": [
        {
          "internalType": "address",
          "name": "from",
          "type": "address"
        },
        {
          "internalType": "address",
          "name": "to",
          "type": "address"
        },
        {
          "internalType": "uint256",
          "name": "tokenId",
          "type": "uint256"
        }
      ],
      "name": "transferFrom",
      "outputs": [],
      "stateMutability": "nonpayable",
      "type": "function"
    }
  ],
  "bytecode": "0x60806040526064600855600060095560405180610120016040528060e88152602001620047fe60e89139600a90805190602001906200004092919062000afd565b50604051806080016040528060568152602001620048e660569139600b90805190602001906200007292919062000afd565b506040518061016001604052806040518060400160405280600481526020017f4d696e690000000000000000000000000000000000000000000000000000000081525081526020016040518060400160405280600581526020017f4d6963726f00000000000000000000000000000000000000000000000000000081525081526020016040518060400160405280600581526020017f4d6163726f00000000000000000000000000000000000000000000000000000081525081526020016040518060400160405280600581526020017f457874726100000000000000000000000000000000000000000000000000000081525081526020016040518060400160405280600481526020017f4d6f6e6f0000000000000000000000000000000000000000000000000000000081525081526020016040518060400160405280600681526020017f547269706c65000000000000000000000000000000000000000000000000000081525081526020016040518060400160405280600681526020017f446f75626c65000000000000000000000000000000000000000000000000000081525081526020016040518060400160405280600681526020017f53696d706c65000000000000000000000000000000000000000000000000000081525081526020016040518060400160405280600581526020017f4d756c746900000000000000000000000000000000000000000000000000000081525081526020016040518060400160405280600581526020017f537570657200000000000000000000000000000000000000000000000000000081525081526020016040518060400160405280600581526020017f4261736963000000000000000000000000000000000000000000000000000000815250815250600c90600b6200031892919062000b8e565b506040518061014001604052806040518060400160405280600481526020017f49726f6e0000000000000000000000000000000000000000000000000000000081525081526020016040518060400160405280600481526020017f476f6c640000000000000000000000000000000000000000000000000000000081525081526020016040518060400160405280600781526020017f456d6572616c640000000000000000000000000000000000000000000000000081525081526020016040518060400160405280600781526020017f4469616d6f6e640000000000000000000000000000000000000000000000000081525081526020016040518060400160405280600881526020017f43686172636f616c00000000000000000000000000000000000000000000000081525081526020016040518060400160405280600581526020017f53746f6e6500000000000000000000000000000000000000000000000000000081525081526020016040518060400160405280600581526020017f576174657200000000000000000000000000000000000000000000000000000081525081526020016040518060400160405280600481526020017f53616e640000000000000000000000000000000000000000000000000000000081525081526020016040518060400160405280600581526020017f4d61676d6100000000000000000000000000000000000000000000000000000081525081526020016040518060400160405280600481526020017f4669726500000000000000000000000000000000000000000000000000000000815250815250600d90600a6200058392919062000bf5565b506040518061012001604052806040518060400160405280600981526020017f48616d627572676572000000000000000000000000000000000000000000000081525081526020016040518060400160405280600581526020017f506173746100000000000000000000000000000000000000000000000000000081525081526020016040518060400160405280600781526020017f43686f72697a6f0000000000000000000000000000000000000000000000000081525081526020016040518060400160405280600681526020017f42616e616e61000000000000000000000000000000000000000000000000000081525081526020016040518060400160405280600781526020017f436869636b656e0000000000000000000000000000000000000000000000000081525081526020016040518060400160405280600681526020017f506f7461746f000000000000000000000000000000000000000000000000000081525081526020016040518060400160405280600581526020017f53616c616400000000000000000000000000000000000000000000000000000081525081526020016040518060400160405280600581526020017f50697a7a6100000000000000000000000000000000000000000000000000000081525081526020016040518060400160405280600881526020017f496365637265616d000000000000000000000000000000000000000000000000815250815250600e906009620007b392919062000c5c565b506040518060c001604052806040518060400160405280600381526020017f726564000000000000000000000000000000000000000000000000000000000081525081526020016040518060400160405280600781526020017f233038433241380000000000000000000000000000000000000000000000000081525081526020016040518060400160405280600581526020017f626c61636b00000000000000000000000000000000000000000000000000000081525081526020016040518060400160405280600681526020017f79656c6c6f77000000000000000000000000000000000000000000000000000081525081526020016040518060400160405280600481526020017f626c75650000000000000000000000000000000000000000000000000000000081525081526020016040518060400160405280600581526020017f677265656e000000000000000000000000000000000000000000000000000000815250815250600f9060066200093192919062000cc3565b503480156200093f57600080fd5b506040518060400160405280600981526020017f5371756172654e465400000000000000000000000000000000000000000000008152506040518060400160405280600681526020017f53515541524500000000000000000000000000000000000000000000000000008152508160009080519060200190620009c492919062000afd565b508060019080519060200190620009dd92919062000afd565b50505062000a2b6040518060400160405280601e81526020017f54686973206973206d79204e465420636f6e74726163742e20576f616821000081525062000a3160201b620011511760201c565b62000ee4565b62000ad18160405160240162000a48919062000e5b565b6040516020818303038152906040527f41304fac000000000000000000000000000000000000000000000000000000007bffffffffffffffffffffffffffffffffffffffffffffffffffffffff19166020820180517bffffffffffffffffffffffffffffffffffffffffffffffffffffffff838183161783525050505062000ad460201b60201c565b50565b60008151905060006a636f6e736f6c652e6c6f679050602083016000808483855afa5050505050565b82805462000b0b9062000eae565b90600052602060002090601f01602090048101928262000b2f576000855562000b7b565b82601f1062000b4a57805160ff191683800117855562000b7b565b8280016001018555821562000b7b579182015b8281111562000b7a57825182559160200191906001019062000b5d565b5b50905062000b8a919062000d2a565b5090565b82805482825590600052602060002090810192821562000be2579160200282015b8281111562000be157825182908051906020019062000bd092919062000afd565b509160200191906001019062000baf565b5b50905062000bf1919062000d49565b5090565b82805482825590600052602060002090810192821562000c49579160200282015b8281111562000c4857825182908051906020019062000c3792919062000afd565b509160200191906001019062000c16565b5b50905062000c58919062000d49565b5090565b82805482825590600052602060002090810192821562000cb0579160200282015b8281111562000caf57825182908051906020019062000c9e92919062000afd565b509160200191906001019062000c7d565b5b50905062000cbf919062000d49565b5090565b82805482825590600052602060002090810192821562000d17579160200282015b8281111562000d1657825182908051906020019062000d0592919062000afd565b509160200191906001019062000ce4565b5b50905062000d26919062000d49565b5090565b5b8082111562000d4557600081600090555060010162000d2b565b5090565b5b8082111562000d6d576000818162000d63919062000d71565b5060010162000d4a565b5090565b50805462000d7f9062000eae565b6000825580601f1062000d93575062000db4565b601f01602090049060005260206000209081019062000db3919062000d2a565b5b50565b600081519050919050565b600082825260208201905092915050565b60005b8381101562000df357808201518184015260208101905062000dd6565b8381111562000e03576000848401525b50505050565b6000601f19601f8301169050919050565b600062000e278262000db7565b62000e33818562000dc2565b935062000e4581856020860162000dd3565b62000e508162000e09565b840191505092915050565b6000602082019050818103600083015262000e77818462000e1a565b905092915050565b7f4e487b7100000000000000000000000000000000000000000000000000000000600052602260045260246000fd5b6000600282049050600182168062000ec757607f821691505b6020821081141562000ede5762000edd62000e7f565b5b50919050565b61390a8062000ef46000396000f3fe608060405234801561001057600080fd5b506004361061012c5760003560e01c80636352211e116100ad578063b187301f11610071578063b187301f14610343578063b88d4fde14610373578063c575757a1461038f578063c87b56dd146103bf578063e985e9c5146103ef5761012c565b80636352211e1461028b57806370a08231146102bb57806395d89b41146102eb578063996517cf14610309578063a22cb465146103275761012c565b806314f710fe116100f457806314f710fe146101e957806323b872dd146101f35780632de38d681461020f57806342842e0e1461023f578063514dc8c61461025b5761012c565b806301ffc9a71461013157806306fdde0314610161578063081812fc1461017f578063095ea7b3146101af57806310351938146101cb575b600080fd5b61014b600480360381019061014691906122d8565b61041f565b6040516101589190612320565b60405180910390f35b610169610501565b60405161017691906123d4565b60405180910390f35b6101996004803603810190610194919061242c565b610593565b6040516101a6919061249a565b60405180910390f35b6101c960048036038101906101c491906124e1565b6105d9565b005b6101d36106f1565b6040516101e09190612530565b60405180910390f35b6101f16106f7565b005b61020d6004803603810190610208919061254b565b6108d0565b005b6102296004803603810190610224919061242c565b610930565b60405161023691906123d4565b60405180910390f35b6102596004803603810190610254919061254b565b610a28565b005b6102756004803603810190610270919061242c565b610a48565b60405161028291906123d4565b60405180910390f35b6102a560048036038101906102a0919061242c565b610b40565b6040516102b2919061249a565b60405180910390f35b6102d560048036038101906102d0919061259e565b610bf2565b6040516102e29190612530565b60405180910390f35b6102f3610caa565b60405161030091906123d4565b60405180910390f35b610311610d3c565b60405161031e9190612530565b60405180910390f35b610341600480360381019061033c91906125f7565b610d42565b005b61035d6004803603810190610358919061242c565b610d58565b60405161036a91906123d4565b60405180910390f35b61038d6004803603810190610388919061276c565b610e50565b005b6103a960048036038101906103a4919061242c565b610eb2565b6040516103b691906123d4565b60405180910390f35b6103d960048036038101906103d4919061242c565b610faa565b6040516103e691906123d4565b60405180910390f35b610409600480360381019061040491906127ef565b6110bd565b6040516104169190612320565b60405180910390f35b60007f80ac58cd000000000000000000000000000000000000000000000000000000007bffffffffffffffffffffffffffffffffffffffffffffffffffffffff1916827bffffffffffffffffffffffffffffffffffffffffffffffffffffffff191614806104ea57507f5b5e139f000000000000000000000000000000000000000000000000000000007bffffffffffffffffffffffffffffffffffffffffffffffffffffffff1916827bffffffffffffffffffffffffffffffffffffffffffffffffffffffff1916145b806104fa57506104f9826111ea565b5b9050919050565b6060600080546105109061285e565b80601f016020809104026020016040519081016040528092919081815260200182805461053c9061285e565b80156105895780601f1061055e57610100808354040283529160200191610589565b820191906000526020600020905b81548152906001019060200180831161056c57829003601f168201915b5050505050905090565b600061059e82611254565b6004600083815260200190815260200160002060009054906101000a900473ffffffffffffffffffffffffffffffffffffffff169050919050565b60006105e482610b40565b90508073ffffffffffffffffffffffffffffffffffffffff168373ffffffffffffffffffffffffffffffffffffffff161415610655576040517f08c379a000000000000000000000000000000000000000000000000000000000815260040161064c90612902565b60405180910390fd5b8073ffffffffffffffffffffffffffffffffffffffff1661067461129f565b73ffffffffffffffffffffffffffffffffffffffff1614806106a357506106a28161069d61129f565b6110bd565b5b6106e2576040517f08c379a00000000000000000000000000000000000000000000000000000000081526004016106d990612994565b60405180910390fd5b6106ec83836112a7565b505050565b60095481565b6008546009541061073d576040517f08c379a000000000000000000000000000000000000000000000000000000000815260040161073490612a26565b60405180910390fd5b60006107496007611360565b9050600061075682610930565b9050600061076383610d58565b9050600061077084610eb2565b9050600083838360405160200161078993929190612a82565b604051602081830303815290604052905060006107a586610a48565b90506000600a82600b856040516020016107c29493929190612b93565b60405160208183030381529060405290506000610807846107e28461136e565b6040516020016107f3929190612d32565b60405160208183030381529060405261136e565b905060008160405160200161081c9190612dc3565b6040516020818303038152906040529050610837338a611506565b6108418982611524565b61084b6007611598565b61086e604051806060016040528060258152602001613870602591398a336115ae565b610884600160095461164d90919063ffffffff16565b6009819055507f3e316b9357d5845154ae758d6a95ac942edaac9a6f0ed10960007b0a3a642630338a856040516108bd93929190612de5565b60405180910390a1505050505050505050565b6108e16108db61129f565b82611663565b610920576040517f08c379a000000000000000000000000000000000000000000000000000000000815260040161091790612e95565b60405180910390fd5b61092b8383836116f8565b505050565b606060006109646109408461195f565b6040516020016109509190612f01565b604051602081830303815290604052611ac0565b9050600c80549050816109779190612f52565b9050600c818154811061098d5761098c612f83565b5b9060005260206000200180546109a29061285e565b80601f01602080910402602001604051908101604052809291908181526020018280546109ce9061285e565b8015610a1b5780601f106109f057610100808354040283529160200191610a1b565b820191906000526020600020905b8154815290600101906020018083116109fe57829003601f168201915b5050505050915050919050565b610a4383838360405180602001604052806000815250610e50565b505050565b60606000610a7c610a588461195f565b604051602001610a689190612ffe565b604051602081830303815290604052611ac0565b9050600f8054905081610a8f9190612f52565b9050600f8181548110610aa557610aa4612f83565b5b906000526020600020018054610aba9061285e565b80601f0160208091040260200160405190810160405280929190818152602001828054610ae69061285e565b8015610b335780601f10610b0857610100808354040283529160200191610b33565b820191906000526020600020905b815481529060010190602001808311610b1657829003601f168201915b5050505050915050919050565b6000806002600084815260200190815260200160002060009054906101000a900473ffffffffffffffffffffffffffffffffffffffff169050600073ffffffffffffffffffffffffffffffffffffffff168173ffffffffffffffffffffffffffffffffffffffff161415610be9576040517f08c379a0000000000000000000000000000000000000000000000000000000008152600401610be09061306c565b60405180910390fd5b80915050919050565b60008073ffffffffffffffffffffffffffffffffffffffff168273ffffffffffffffffffffffffffffffffffffffff161415610c63576040517f08c379a0000000000000000000000000000000000000000000000000000000008152600401610c5a906130fe565b60405180910390fd5b600360008373ffffffffffffffffffffffffffffffffffffffff1673ffffffffffffffffffffffffffffffffffffffff168152602001908152602001600020549050919050565b606060018054610cb99061285e565b80601f0160208091040260200160405190810160405280929190818152602001828054610ce59061285e565b8015610d325780601f10610d0757610100808354040283529160200191610d32565b820191906000526020600020905b815481529060010190602001808311610d1557829003601f168201915b5050505050905090565b60085481565b610d54610d4d61129f565b8383611af3565b5050565b60606000610d8c610d688461195f565b604051602001610d78919061316a565b604051602081830303815290604052611ac0565b9050600d8054905081610d9f9190612f52565b9050600d8181548110610db557610db4612f83565b5b906000526020600020018054610dca9061285e565b80601f0160208091040260200160405190810160405280929190818152602001828054610df69061285e565b8015610e435780601f10610e1857610100808354040283529160200191610e43565b820191906000526020600020905b815481529060010190602001808311610e2657829003601f168201915b5050505050915050919050565b610e61610e5b61129f565b83611663565b610ea0576040517f08c379a0000000000000000000000000000000000000000000000000000000008152600401610e9790612e95565b60405180910390fd5b610eac84848484611c60565b50505050565b60606000610ee6610ec28461195f565b604051602001610ed291906131d8565b604051602081830303815290604052611ac0565b9050600e8054905081610ef99190612f52565b9050600e8181548110610f0f57610f0e612f83565b5b906000526020600020018054610f249061285e565b80601f0160208091040260200160405190810160405280929190818152602001828054610f509061285e565b8015610f9d5780601f10610f7257610100808354040283529160200191610f9d565b820191906000526020600020905b815481529060010190602001808311610f8057829003601f168201915b5050505050915050919050565b6060610fb582611254565b6000600660008481526020019081526020016000208054610fd59061285e565b80601f01602080910402602001604051908101604052809291908181526020018280546110019061285e565b801561104e5780601f106110235761010080835404028352916020019161104e565b820191906000526020600020905b81548152906001019060200180831161103157829003601f168201915b50505050509050600061105f611cbc565b90506000815114156110755781925050506110b8565b6000825111156110aa5780826040516020016110929291906131fa565b604051602081830303815290604052925050506110b8565b6110b384611cd3565b925050505b919050565b6000600560008473ffffffffffffffffffffffffffffffffffffffff1673ffffffffffffffffffffffffffffffffffffffff16815260200190815260200160002060008373ffffffffffffffffffffffffffffffffffffffff1673ffffffffffffffffffffffffffffffffffffffff16815260200190815260200160002060009054906101000a900460ff16905092915050565b6111e78160405160240161116591906123d4565b6040516020818303038152906040527f41304fac000000000000000000000000000000000000000000000000000000007bffffffffffffffffffffffffffffffffffffffffffffffffffffffff19166020820180517bffffffffffffffffffffffffffffffffffffffffffffffffffffffff8381831617835250505050611d3b565b50565b60007f01ffc9a7000000000000000000000000000000000000000000000000000000007bffffffffffffffffffffffffffffffffffffffffffffffffffffffff1916827bffffffffffffffffffffffffffffffffffffffffffffffffffffffff1916149050919050565b61125d81611d64565b61129c576040517f08c379a00000000000000000000000000000000000000000000000000000000081526004016112939061306c565b60405180910390fd5b50565b600033905090565b816004600083815260200190815260200160002060006101000a81548173ffffffffffffffffffffffffffffffffffffffff021916908373ffffffffffffffffffffffffffffffffffffffff160217905550808273ffffffffffffffffffffffffffffffffffffffff1661131a83610b40565b73ffffffffffffffffffffffffffffffffffffffff167f8c5be1e5ebec7d5bd14f71427d1e84f3dd0314c0f7b2291e5b200ac8c7c3b92560405160405180910390a45050565b600081600001549050919050565b606060008251905060008114156113975760405180602001604052806000815250915050611501565b600060036002836113a8919061324d565b6113b291906132a3565b60046113be91906132d4565b905060006020826113cf919061324d565b67ffffffffffffffff8111156113e8576113e7612641565b5b6040519080825280601f01601f19166020018201604052801561141a5781602001600182028036833780820191505090505b5090506000604051806060016040528060408152602001613895604091399050600181016020830160005b868110156114be5760038101905062ffffff818a015116603f8160121c168401518060081b905060ff603f83600c1c1686015116810190508060081b905060ff603f8360061c1686015116810190508060081b905060ff603f831686015116810190508060e01b90508084526004840193505050611445565b5060038606600181146114d857600281146114e8576114f3565b613d3d60f01b60028303526114f3565b603d60f81b60018303525b508484525050819450505050505b919050565b611520828260405180602001604052806000815250611dd0565b5050565b61152d82611d64565b61156c576040517f08c379a0000000000000000000000000000000000000000000000000000000008152600401611563906133a0565b60405180910390fd5b806006600084815260200190815260200160002090805190602001906115939291906121c9565b505050565b6001816000016000828254019250508190555050565b6116488383836040516024016115c6939291906133c0565b6040516020818303038152906040527fe3849f79000000000000000000000000000000000000000000000000000000007bffffffffffffffffffffffffffffffffffffffffffffffffffffffff19166020820180517bffffffffffffffffffffffffffffffffffffffffffffffffffffffff8381831617835250505050611d3b565b505050565b6000818361165b919061324d565b905092915050565b60008061166f83610b40565b90508073ffffffffffffffffffffffffffffffffffffffff168473ffffffffffffffffffffffffffffffffffffffff1614806116b157506116b081856110bd565b5b806116ef57508373ffffffffffffffffffffffffffffffffffffffff166116d784610593565b73ffffffffffffffffffffffffffffffffffffffff16145b91505092915050565b8273ffffffffffffffffffffffffffffffffffffffff1661171882610b40565b73ffffffffffffffffffffffffffffffffffffffff161461176e576040517f08c379a000000000000000000000000000000000000000000000000000000000815260040161176590613470565b60405180910390fd5b600073ffffffffffffffffffffffffffffffffffffffff168273ffffffffffffffffffffffffffffffffffffffff1614156117de576040517f08c379a00000000000000000000000000000000000000000000000000000000081526004016117d590613502565b60405180910390fd5b6117e9838383611e2b565b6117f46000826112a7565b6001600360008573ffffffffffffffffffffffffffffffffffffffff1673ffffffffffffffffffffffffffffffffffffffff16815260200190815260200160002060008282546118449190613522565b925050819055506001600360008473ffffffffffffffffffffffffffffffffffffffff1673ffffffffffffffffffffffffffffffffffffffff168152602001908152602001600020600082825461189b919061324d565b92505081905550816002600083815260200190815260200160002060006101000a81548173ffffffffffffffffffffffffffffffffffffffff021916908373ffffffffffffffffffffffffffffffffffffffff160217905550808273ffffffffffffffffffffffffffffffffffffffff168473ffffffffffffffffffffffffffffffffffffffff167fddf252ad1be2c89b69c2b068fc378daa952ba7f163c4a11628f55a4df523b3ef60405160405180910390a461195a838383611e30565b505050565b606060008214156119a7576040518060400160405280600181526020017f30000000000000000000000000000000000000000000000000000000000000008152509050611abb565b600082905060005b600082146119d95780806119c290613556565b915050600a826119d291906132a3565b91506119af565b60008167ffffffffffffffff8111156119f5576119f4612641565b5b6040519080825280601f01601f191660200182016040528015611a275781602001600182028036833780820191505090505b5090505b60008514611ab457600182611a409190613522565b9150600a85611a4f9190612f52565b6030611a5b919061324d565b60f81b818381518110611a7157611a70612f83565b5b60200101907effffffffffffffffffffffffffffffffffffffffffffffffffffffffffffff1916908160001a905350600a85611aad91906132a3565b9450611a2b565b8093505050505b919050565b600081604051602001611ad3919061359f565b6040516020818303038152906040528051906020012060001c9050919050565b8173ffffffffffffffffffffffffffffffffffffffff168373ffffffffffffffffffffffffffffffffffffffff161415611b62576040517f08c379a0000000000000000000000000000000000000000000000000000000008152600401611b5990613602565b60405180910390fd5b80600560008573ffffffffffffffffffffffffffffffffffffffff1673ffffffffffffffffffffffffffffffffffffffff16815260200190815260200160002060008473ffffffffffffffffffffffffffffffffffffffff1673ffffffffffffffffffffffffffffffffffffffff16815260200190815260200160002060006101000a81548160ff0219169083151502179055508173ffffffffffffffffffffffffffffffffffffffff168373ffffffffffffffffffffffffffffffffffffffff167f17307eab39ab6107e8899845ad3d59bd9653f200f220920489ca2b5937696c3183604051611c539190612320565b60405180910390a3505050565b611c6b8484846116f8565b611c7784848484611e35565b611cb6576040517f08c379a0000000000000000000000000000000000000000000000000000000008152600401611cad90613694565b60405180910390fd5b50505050565b606060405180602001604052806000815250905090565b6060611cde82611254565b6000611ce8611cbc565b90506000815111611d085760405180602001604052806000815250611d33565b80611d128461195f565b604051602001611d239291906131fa565b6040516020818303038152906040525b915050919050565b60008151905060006a636f6e736f6c652e6c6f679050602083016000808483855afa5050505050565b60008073ffffffffffffffffffffffffffffffffffffffff166002600084815260200190815260200160002060009054906101000a900473ffffffffffffffffffffffffffffffffffffffff1673ffffffffffffffffffffffffffffffffffffffff1614159050919050565b611dda8383611fcc565b611de76000848484611e35565b611e26576040517f08c379a0000000000000000000000000000000000000000000000000000000008152600401611e1d90613694565b60405180910390fd5b505050565b505050565b505050565b6000611e568473ffffffffffffffffffffffffffffffffffffffff166121a6565b15611fbf578373ffffffffffffffffffffffffffffffffffffffff1663150b7a02611e7f61129f565b8786866040518563ffffffff1660e01b8152600401611ea19493929190613709565b602060405180830381600087803b158015611ebb57600080fd5b505af1925050508015611eec57506040513d601f19601f82011682018060405250810190611ee9919061376a565b60015b611f6f573d8060008114611f1c576040519150601f19603f3d011682016040523d82523d6000602084013e611f21565b606091505b50600081511415611f67576040517f08c379a0000000000000000000000000000000000000000000000000000000008152600401611f5e90613694565b60405180910390fd5b805181602001fd5b63150b7a0260e01b7bffffffffffffffffffffffffffffffffffffffffffffffffffffffff1916817bffffffffffffffffffffffffffffffffffffffffffffffffffffffff191614915050611fc4565b600190505b949350505050565b600073ffffffffffffffffffffffffffffffffffffffff168273ffffffffffffffffffffffffffffffffffffffff16141561203c576040517f08c379a0000000000000000000000000000000000000000000000000000000008152600401612033906137e3565b60405180910390fd5b61204581611d64565b15612085576040517f08c379a000000000000000000000000000000000000000000000000000000000815260040161207c9061384f565b60405180910390fd5b61209160008383611e2b565b6001600360008473ffffffffffffffffffffffffffffffffffffffff1673ffffffffffffffffffffffffffffffffffffffff16815260200190815260200160002060008282546120e1919061324d565b92505081905550816002600083815260200190815260200160002060006101000a81548173ffffffffffffffffffffffffffffffffffffffff021916908373ffffffffffffffffffffffffffffffffffffffff160217905550808273ffffffffffffffffffffffffffffffffffffffff16600073ffffffffffffffffffffffffffffffffffffffff167fddf252ad1be2c89b69c2b068fc378daa952ba7f163c4a11628f55a4df523b3ef60405160405180910390a46121a260008383611e30565b5050565b6000808273ffffffffffffffffffffffffffffffffffffffff163b119050919050565b8280546121d59061285e565b90600052602060002090601f0160209004810192826121f7576000855561223e565b82601f1061221057805160ff191683800117855561223e565b8280016001018555821561223e579182015b8281111561223d578251825591602001919060010190612222565b5b50905061224b919061224f565b5090565b5b80821115612268576000816000905550600101612250565b5090565b6000604051905090565b600080fd5b600080fd5b60007fffffffff0000000000000000000000000000000000000000000000000000000082169050919050565b6122b581612280565b81146122c057600080fd5b50565b6000813590506122d2816122ac565b92915050565b6000602082840312156122ee576122ed612276565b5b60006122fc848285016122c3565b91505092915050565b60008115159050919050565b61231a81612305565b82525050565b60006020820190506123356000830184612311565b92915050565b600081519050919050565b600082825260208201905092915050565b60005b8381101561237557808201518184015260208101905061235a565b83811115612384576000848401525b50505050565b6000601f19601f8301169050919050565b60006123a68261233b565b6123b08185612346565b93506123c0818560208601612357565b6123c98161238a565b840191505092915050565b600060208201905081810360008301526123ee818461239b565b905092915050565b6000819050919050565b612409816123f6565b811461241457600080fd5b50565b60008135905061242681612400565b92915050565b60006020828403121561244257612441612276565b5b600061245084828501612417565b91505092915050565b600073ffffffffffffffffffffffffffffffffffffffff82169050919050565b600061248482612459565b9050919050565b61249481612479565b82525050565b60006020820190506124af600083018461248b565b92915050565b6124be81612479565b81146124c957600080fd5b50565b6000813590506124db816124b5565b92915050565b600080604083850312156124f8576124f7612276565b5b6000612506858286016124cc565b925050602061251785828601612417565b9150509250929050565b61252a816123f6565b82525050565b60006020820190506125456000830184612521565b92915050565b60008060006060848603121561256457612563612276565b5b6000612572868287016124cc565b9350506020612583868287016124cc565b925050604061259486828701612417565b9150509250925092565b6000602082840312156125b4576125b3612276565b5b60006125c2848285016124cc565b91505092915050565b6125d481612305565b81146125df57600080fd5b50565b6000813590506125f1816125cb565b92915050565b6000806040838503121561260e5761260d612276565b5b600061261c858286016124cc565b925050602061262d858286016125e2565b9150509250929050565b600080fd5b600080fd5b7f4e487b7100000000000000000000000000000000000000000000000000000000600052604160045260246000fd5b6126798261238a565b810181811067ffffffffffffffff8211171561269857612697612641565b5b80604052505050565b60006126ab61226c565b90506126b78282612670565b919050565b600067ffffffffffffffff8211156126d7576126d6612641565b5b6126e08261238a565b9050602081019050919050565b82818337600083830152505050565b600061270f61270a846126bc565b6126a1565b90508281526020810184848401111561272b5761272a61263c565b5b6127368482856126ed565b509392505050565b600082601f83011261275357612752612637565b5b81356127638482602086016126fc565b91505092915050565b6000806000806080858703121561278657612785612276565b5b6000612794878288016124cc565b94505060206127a5878288016124cc565b93505060406127b687828801612417565b925050606085013567ffffffffffffffff8111156127d7576127d661227b565b5b6127e38782880161273e565b91505092959194509250565b6000806040838503121561280657612805612276565b5b6000612814858286016124cc565b9250506020612825858286016124cc565b9150509250929050565b7f4e487b7100000000000000000000000000000000000000000000000000000000600052602260045260246000fd5b6000600282049050600182168061287657607f821691505b6020821081141561288a5761288961282f565b5b50919050565b7f4552433732313a20617070726f76616c20746f2063757272656e74206f776e6560008201527f7200000000000000000000000000000000000000000000000000000000000000602082015250565b60006128ec602183612346565b91506128f782612890565b604082019050919050565b6000602082019050818103600083015261291b816128df565b9050919050565b7f4552433732313a20617070726f76652063616c6c6572206973206e6f7420746f60008201527f6b656e206f776e6572206e6f7220617070726f76656420666f7220616c6c0000602082015250565b600061297e603e83612346565b915061298982612922565b604082019050919050565b600060208201905081810360008301526129ad81612971565b9050919050565b7f4e6f206d6f7265204e46547320617661696c61626c6520746f206d696e74203a60008201527f2800000000000000000000000000000000000000000000000000000000000000602082015250565b6000612a10602183612346565b9150612a1b826129b4565b604082019050919050565b60006020820190508181036000830152612a3f81612a03565b9050919050565b600081905092915050565b6000612a5c8261233b565b612a668185612a46565b9350612a76818560208601612357565b80840191505092915050565b6000612a8e8286612a51565b9150612a9a8285612a51565b9150612aa68284612a51565b9150819050949350505050565b60008190508160005260206000209050919050565b60008154612ad58161285e565b612adf8186612a46565b94506001821660008114612afa5760018114612b0b57612b3e565b60ff19831686528186019350612b3e565b612b1485612ab3565b60005b83811015612b3657815481890152600182019150602081019050612b17565b838801955050505b50505092915050565b7f3c2f746578743e3c2f7376673e00000000000000000000000000000000000000600082015250565b6000612b7d600d83612a46565b9150612b8882612b47565b600d82019050919050565b6000612b9f8287612ac8565b9150612bab8286612a51565b9150612bb78285612ac8565b9150612bc38284612a51565b9150612bce82612b70565b915081905095945050505050565b7f7b226e616d65223a202200000000000000000000000000000000000000000000600082015250565b6000612c12600a83612a46565b9150612c1d82612bdc565b600a82019050919050565b7f222c20226465736372697074696f6e223a20224120686967686c79206163636c60008201527f61696d656420636f6c6c656374696f6e206f6620737175617265732e222c202260208201527f696d616765223a2022646174613a696d6167652f7376672b786d6c3b6261736560408201527f36342c0000000000000000000000000000000000000000000000000000000000606082015250565b6000612cd0606383612a46565b9150612cdb82612c28565b606382019050919050565b7f227d000000000000000000000000000000000000000000000000000000000000600082015250565b6000612d1c600283612a46565b9150612d2782612ce6565b600282019050919050565b6000612d3d82612c05565b9150612d498285612a51565b9150612d5482612cc3565b9150612d608284612a51565b9150612d6b82612d0f565b91508190509392505050565b7f646174613a6170706c69636174696f6e2f6a736f6e3b6261736536342c000000600082015250565b6000612dad601d83612a46565b9150612db882612d77565b601d82019050919050565b6000612dce82612da0565b9150612dda8284612a51565b915081905092915050565b6000606082019050612dfa600083018661248b565b612e076020830185612521565b8181036040830152612e19818461239b565b9050949350505050565b7f4552433732313a2063616c6c6572206973206e6f7420746f6b656e206f776e6560008201527f72206e6f7220617070726f766564000000000000000000000000000000000000602082015250565b6000612e7f602e83612346565b9150612e8a82612e23565b604082019050919050565b60006020820190508181036000830152612eae81612e72565b9050919050565b7f46495253545f574f524400000000000000000000000000000000000000000000600082015250565b6000612eeb600a83612a46565b9150612ef682612eb5565b600a82019050919050565b6000612f0c82612ede565b9150612f188284612a51565b915081905092915050565b7f4e487b7100000000000000000000000000000000000000000000000000000000600052601260045260246000fd5b6000612f5d826123f6565b9150612f68836123f6565b925082612f7857612f77612f23565b5b828206905092915050565b7f4e487b7100000000000000000000000000000000000000000000000000000000600052603260045260246000fd5b7f434f4c4f52000000000000000000000000000000000000000000000000000000600082015250565b6000612fe8600583612a46565b9150612ff382612fb2565b600582019050919050565b600061300982612fdb565b91506130158284612a51565b915081905092915050565b7f4552433732313a20696e76616c696420746f6b656e2049440000000000000000600082015250565b6000613056601883612346565b915061306182613020565b602082019050919050565b6000602082019050818103600083015261308581613049565b9050919050565b7f4552433732313a2061646472657373207a65726f206973206e6f74206120766160008201527f6c6964206f776e65720000000000000000000000000000000000000000000000602082015250565b60006130e8602983612346565b91506130f38261308c565b604082019050919050565b60006020820190508181036000830152613117816130db565b9050919050565b7f5345434f4e445f574f5244000000000000000000000000000000000000000000600082015250565b6000613154600b83612a46565b915061315f8261311e565b600b82019050919050565b600061317582613147565b91506131818284612a51565b915081905092915050565b7f54484952445f574f524400000000000000000000000000000000000000000000600082015250565b60006131c2600a83612a46565b91506131cd8261318c565b600a82019050919050565b60006131e3826131b5565b91506131ef8284612a51565b915081905092915050565b60006132068285612a51565b91506132128284612a51565b91508190509392505050565b7f4e487b7100000000000000000000000000000000000000000000000000000000600052601160045260246000fd5b6000613258826123f6565b9150613263836123f6565b9250827fffffffffffffffffffffffffffffffffffffffffffffffffffffffffffffffff038211156132985761329761321e565b5b828201905092915050565b60006132ae826123f6565b91506132b9836123f6565b9250826132c9576132c8612f23565b5b828204905092915050565b60006132df826123f6565b91506132ea836123f6565b9250817fffffffffffffffffffffffffffffffffffffffffffffffffffffffffffffffff04831182151516156133235761332261321e565b5b828202905092915050565b7f45524337323155524953746f726167653a2055524920736574206f66206e6f6e60008201527f6578697374656e7420746f6b656e000000000000000000000000000000000000602082015250565b600061338a602e83612346565b91506133958261332e565b604082019050919050565b600060208201905081810360008301526133b98161337d565b9050919050565b600060608201905081810360008301526133da818661239b565b90506133e96020830185612521565b6133f6604083018461248b565b949350505050565b7f4552433732313a207472616e736665722066726f6d20696e636f72726563742060008201527f6f776e6572000000000000000000000000000000000000000000000000000000602082015250565b600061345a602583612346565b9150613465826133fe565b604082019050919050565b600060208201905081810360008301526134898161344d565b9050919050565b7f4552433732313a207472616e7366657220746f20746865207a65726f2061646460008201527f7265737300000000000000000000000000000000000000000000000000000000602082015250565b60006134ec602483612346565b91506134f782613490565b604082019050919050565b6000602082019050818103600083015261351b816134df565b9050919050565b600061352d826123f6565b9150613538836123f6565b92508282101561354b5761354a61321e565b5b828203905092915050565b6000613561826123f6565b91507fffffffffffffffffffffffffffffffffffffffffffffffffffffffffffffffff8214156135945761359361321e565b5b600182019050919050565b60006135ab8284612a51565b915081905092915050565b7f4552433732313a20617070726f766520746f2063616c6c657200000000000000600082015250565b60006135ec601983612346565b91506135f7826135b6565b602082019050919050565b6000602082019050818103600083015261361b816135df565b9050919050565b7f4552433732313a207472616e7366657220746f206e6f6e20455243373231526560008201527f63656976657220696d706c656d656e7465720000000000000000000000000000602082015250565b600061367e603283612346565b915061368982613622565b604082019050919050565b600060208201905081810360008301526136ad81613671565b9050919050565b600081519050919050565b600082825260208201905092915050565b60006136db826136b4565b6136e581856136bf565b93506136f5818560208601612357565b6136fe8161238a565b840191505092915050565b600060808201905061371e600083018761248b565b61372b602083018661248b565b6137386040830185612521565b818103606083015261374a81846136d0565b905095945050505050565b600081519050613764816122ac565b92915050565b6000602082840312156137805761377f612276565b5b600061378e84828501613755565b91505092915050565b7f4552433732313a206d696e7420746f20746865207a65726f2061646472657373600082015250565b60006137cd602083612346565b91506137d882613797565b602082019050919050565b600060208201905081810360008301526137fc816137c0565b9050919050565b7f4552433732313a20746f6b656e20616c7265616479206d696e74656400000000600082015250565b6000613839601c83612346565b915061384482613803565b602082019050919050565b600060208201905081810360008301526138688161382c565b905091905056fe416e204e465420772f20494420257320686173206265656e206d696e74656420746f2025734142434445464748494a4b4c4d4e4f505152535455565758595a6162636465666768696a6b6c6d6e6f707172737475767778797a303132333435363738392b2fa26469706673582212208147b5469c1dcdf35f1f61d85245a459e16a1262d806f5875893d35da35e09d164736f6c634300080900333c73766720636c6173733d27726f756e64656420772d35302720786d6c6e733d27687474703a2f2f7777772e77332e6f72672f323030302f73766727207072657365727665417370656374526174696f3d27784d696e594d696e206d656574272076696577426f783d273020302033353020333530273e3c7374796c653e2e62617365207b2066696c6c3a2077686974653b20666f6e742d66616d696c793a2073657269663b20666f6e742d73697a653a20323470783b207d3c2f7374796c653e3c726563742077696474683d273130302527206865696768743d2731303025272066696c6c3d27272f3e3c7465787420783d273530252720793d273530252720636c6173733d27626173652720646f6d696e616e742d626173656c696e653d276d6964646c652720746578742d616e63686f723d276d6964646c65273e",
  "linkReferences": {},
  "deployedLinkReferences": {}
}